{
  "_format": "hh-sol-artifact-1",
  "contractName": "FreeVideos",
  "sourceName": "contracts/FreeVideos.sol",
  "abi": [
    {
      "inputs": [],
      "stateMutability": "nonpayable",
      "type": "constructor"
    },
    {
      "anonymous": false,
      "inputs": [
        {
          "indexed": false,
          "internalType": "uint256",
          "name": "id",
          "type": "uint256"
        },
        {
          "indexed": false,
          "internalType": "string",
          "name": "hash",
          "type": "string"
        },
        {
          "indexed": false,
          "internalType": "string",
          "name": "title",
          "type": "string"
        },
        {
          "indexed": false,
          "internalType": "address",
          "name": "sender",
          "type": "address"
        }
      ],
      "name": "VideoAdded",
      "type": "event"
    },
    {
      "inputs": [],
      "name": "name",
      "outputs": [
        {
          "internalType": "string",
          "name": "",
          "type": "string"
        }
      ],
      "stateMutability": "view",
      "type": "function"
    },
    {
      "inputs": [],
      "name": "owner",
      "outputs": [
        {
          "internalType": "address",
          "name": "",
          "type": "address"
        }
      ],
      "stateMutability": "view",
      "type": "function"
    },
    {
      "inputs": [
        {
          "internalType": "string",
          "name": "_videoHash",
          "type": "string"
        },
        {
          "internalType": "string",
          "name": "_title",
          "type": "string"
        }
      ],
      "name": "uploadVideo",
      "outputs": [],
      "stateMutability": "nonpayable",
      "type": "function"
    },
    {
      "inputs": [],
      "name": "videoCount",
      "outputs": [
        {
          "internalType": "uint256",
          "name": "",
          "type": "uint256"
        }
      ],
      "stateMutability": "view",
      "type": "function"
    },
    {
      "inputs": [
        {
          "internalType": "uint256",
          "name": "",
          "type": "uint256"
        }
      ],
      "name": "videos",
      "outputs": [
        {
          "internalType": "uint256",
          "name": "id",
          "type": "uint256"
        },
        {
          "internalType": "string",
          "name": "hash",
          "type": "string"
        },
        {
          "internalType": "string",
          "name": "title",
          "type": "string"
        },
        {
          "internalType": "address",
          "name": "author",
          "type": "address"
        }
      ],
      "stateMutability": "view",
      "type": "function"
    }
  ],
  "bytecode": "0x60c0604052600a60809081526946726565566964656f7360b01b60a05260029061002990826100ef565b5034801561003657600080fd5b50600180546001600160a01b031916331790556101ae565b634e487b7160e01b600052604160045260246000fd5b600181811c9082168061007857607f821691505b60208210810361009857634e487b7160e01b600052602260045260246000fd5b50919050565b601f8211156100ea576000816000526020600020601f850160051c810160208610156100c75750805b601f850160051c820191505b818110156100e6578281556001016100d3565b5050505b505050565b81516001600160401b038111156101085761010861004e565b61011c816101168454610064565b8461009e565b602080601f83116001811461015157600084156101395750858301515b600019600386901b1c1916600185901b1785556100e6565b600085815260208120601f198616915b8281101561018057888601518255948401946001909101908401610161565b508582101561019e5787850151600019600388901b60f8161c191681555b5050505050600190811b01905550565b6107a3806101bd6000396000f3fe608060405234801561001057600080fd5b50600436106100575760003560e01c806306fdde031461005c5780638a5447c51461007a5780638da5cb5b1461008f578063c61b5f4c146100ba578063e6821bf5146100d1575b600080fd5b6100646100f4565b604051610071919061047c565b60405180910390f35b61008d610088366004610539565b610182565b005b6001546100a2906001600160a01b031681565b6040516001600160a01b039091168152602001610071565b6100c360005481565b604051908152602001610071565b6100e46100df36600461059d565b6102f4565b60405161007194939291906105b6565b60028054610101906105fb565b80601f016020809104026020016040519081016040528092919081815260200182805461012d906105fb565b801561017a5780601f1061014f5761010080835404028352916020019161017a565b820191906000526020600020905b81548152906001019060200180831161015d57829003601f168201915b505050505081565b60008251116101cd5760405162461bcd60e51b81526020600482015260126024820152710a6d0deead8c840d0c2ecca40c240d0c2e6d60731b60448201526064015b60405180910390fd5b60008151116102145760405162461bcd60e51b815260206004820152601360248201527253686f756c6420686176652061207469746c6560681b60448201526064016101c4565b60016000808282546102269190610635565b90915550506040805160808101825260008054808352602080840187815284860187905233606086015291835260039052929020815181559151909190600182019061027290826106ad565b506040820151600282019061028790826106ad565b5060609190910151600390910180546001600160a01b0319166001600160a01b039092169190911790556000546040517f9433ffdeca82850c67e06f87093c1864eb8248af15e8319322271c07c7e29664916102e8918590859033906105b6565b60405180910390a15050565b60036020526000908152604090208054600182018054919291610316906105fb565b80601f0160208091040260200160405190810160405280929190818152602001828054610342906105fb565b801561038f5780601f106103645761010080835404028352916020019161038f565b820191906000526020600020905b81548152906001019060200180831161037257829003601f168201915b5050505050908060020180546103a4906105fb565b80601f01602080910402602001604051908101604052809291908181526020018280546103d0906105fb565b801561041d5780601f106103f25761010080835404028352916020019161041d565b820191906000526020600020905b81548152906001019060200180831161040057829003601f168201915b505050600390930154919250506001600160a01b031684565b6000815180845260005b8181101561045c57602081850181015186830182015201610440565b506000602082860101526020601f19601f83011685010191505092915050565b60208152600061048f6020830184610436565b9392505050565b634e487b7160e01b600052604160045260246000fd5b600082601f8301126104bd57600080fd5b813567ffffffffffffffff808211156104d8576104d8610496565b604051601f8301601f19908116603f0116810190828211818310171561050057610500610496565b8160405283815286602085880101111561051957600080fd5b836020870160208301376000602085830101528094505050505092915050565b6000806040838503121561054c57600080fd5b823567ffffffffffffffff8082111561056457600080fd5b610570868387016104ac565b9350602085013591508082111561058657600080fd5b50610593858286016104ac565b9150509250929050565b6000602082840312156105af57600080fd5b5035919050565b8481526080602082015260006105cf6080830186610436565b82810360408401526105e18186610436565b91505060018060a01b038316606083015295945050505050565b600181811c9082168061060f57607f821691505b60208210810361062f57634e487b7160e01b600052602260045260246000fd5b50919050565b8082018082111561065657634e487b7160e01b600052601160045260246000fd5b92915050565b601f8211156106a8576000816000526020600020601f850160051c810160208610156106855750805b601f850160051c820191505b818110156106a457828155600101610691565b5050505b505050565b815167ffffffffffffffff8111156106c7576106c7610496565b6106db816106d584546105fb565b8461065c565b602080601f83116001811461071057600084156106f85750858301515b600019600386901b1c1916600185901b1785556106a4565b600085815260208120601f198616915b8281101561073f57888601518255948401946001909101908401610720565b508582101561075d5787850151600019600388901b60f8161c191681555b5050505050600190811b0190555056fea2646970667358221220ce9b6f4ea96f09217ebd2c438bc27b14a7abf7994a952b015bcb0a55db1f896664736f6c63430008180033",
  "linkReferences": {},
  "deployedLinkReferences": {}
}